{
  "contractName": "Stock_Request",
  "abi": [
    {
      "inputs": [],
      "stateMutability": "nonpayable",
      "type": "constructor"
    },
    {
      "anonymous": false,
      "inputs": [
        {
          "indexed": false,
          "internalType": "string",
          "name": "timeType",
          "type": "string"
        },
        {
          "indexed": false,
          "internalType": "string",
          "name": "symbol",
          "type": "string"
        },
        {
          "indexed": false,
          "internalType": "string",
          "name": "outputSize",
          "type": "string"
        },
        {
          "indexed": false,
          "internalType": "string",
          "name": "dataType",
          "type": "string"
        },
        {
          "indexed": false,
          "internalType": "string",
          "name": "interval",
          "type": "string"
        }
      ],
      "name": "stockParams",
      "type": "event"
    },
    {
      "inputs": [],
      "name": "isActive",
      "outputs": [
        {
          "internalType": "bool",
          "name": "",
          "type": "bool"
        }
      ],
      "stateMutability": "view",
      "type": "function",
      "constant": true
    },
    {
      "inputs": [],
      "name": "price",
      "outputs": [
        {
          "internalType": "uint256",
          "name": "",
          "type": "uint256"
        }
      ],
      "stateMutability": "view",
      "type": "function",
      "constant": true
    },
    {
      "inputs": [
        {
          "internalType": "string",
          "name": "_timeType",
          "type": "string"
        },
        {
          "internalType": "string",
          "name": "_symbol",
          "type": "string"
        },
        {
          "internalType": "string",
          "name": "_outputSize",
          "type": "string"
        },
        {
          "internalType": "string",
          "name": "_dataType",
          "type": "string"
        },
        {
          "internalType": "string",
          "name": "_interval",
          "type": "string"
        }
      ],
      "name": "sendStockParams",
      "outputs": [],
      "stateMutability": "payable",
      "type": "function",
      "payable": true
    },
    {
      "inputs": [
        {
          "internalType": "uint256",
          "name": "_price",
          "type": "uint256"
        }
      ],
      "name": "setPrices",
      "outputs": [],
      "stateMutability": "nonpayable",
      "type": "function"
    },
    {
      "inputs": [
        {
          "internalType": "bool",
          "name": "_isActive",
          "type": "bool"
        }
      ],
      "name": "setApiState",
      "outputs": [],
      "stateMutability": "nonpayable",
      "type": "function"
    },
    {
      "inputs": [
        {
          "internalType": "address payable",
          "name": "recipient",
          "type": "address"
        },
        {
          "internalType": "uint256",
          "name": "amount",
          "type": "uint256"
        }
      ],
      "name": "transferFunds",
      "outputs": [],
      "stateMutability": "nonpayable",
      "type": "function"
    }
  ],
  "bytecode": "0x608060405234801561001057600080fd5b50336001806101000a81548173ffffffffffffffffffffffffffffffffffffffff021916908373ffffffffffffffffffffffffffffffffffffffff160217905550610b43806100606000396000f3fe6080604052600436106100555760003560e01c8063137769db1461005a57806322f3e2d414610083578063990dc9db146100ae578063a035b1fe146100d7578063a3201daa14610102578063b2d008851461012b575b600080fd5b34801561006657600080fd5b50610081600480360381019061007c91906104cc565b610147565b005b34801561008f57600080fd5b506100986101f2565b6040516100a59190610508565b60405180910390f35b3480156100ba57600080fd5b506100d560048036038101906100d091906105b7565b610205565b005b3480156100e357600080fd5b506100ec6102f1565b6040516100f99190610606565b60405180910390f35b34801561010e57600080fd5b5061012960048036038101906101249190610621565b6102f7565b005b610145600480360381019061014091906106b3565b61038f565b005b60018054906101000a900473ffffffffffffffffffffffffffffffffffffffff1673ffffffffffffffffffffffffffffffffffffffff163373ffffffffffffffffffffffffffffffffffffffff16146101d5576040517f08c379a00000000000000000000000000000000000000000000000000000000081526004016101cc9061082d565b60405180910390fd5b80600160006101000a81548160ff02191690831515021790555050565b600160009054906101000a900460ff1681565b60018054906101000a900473ffffffffffffffffffffffffffffffffffffffff1673ffffffffffffffffffffffffffffffffffffffff163373ffffffffffffffffffffffffffffffffffffffff1614610293576040517f08c379a000000000000000000000000000000000000000000000000000000000815260040161028a90610899565b60405180910390fd5b8173ffffffffffffffffffffffffffffffffffffffff166108fc670de0b6b3a7640000836102c191906108e8565b9081150290604051600060405180830381858888f193505050501580156102ec573d6000803e3d6000fd5b505050565b60005481565b60018054906101000a900473ffffffffffffffffffffffffffffffffffffffff1673ffffffffffffffffffffffffffffffffffffffff163373ffffffffffffffffffffffffffffffffffffffff1614610385576040517f08c379a000000000000000000000000000000000000000000000000000000000815260040161037c9061082d565b60405180910390fd5b8060008190555050565b66038d7ea4c680006000546103a491906108e8565b3410156103e6576040517f08c379a00000000000000000000000000000000000000000000000000000000081526004016103dd9061098e565b60405180910390fd5b600160009054906101000a900460ff16610435576040517f08c379a000000000000000000000000000000000000000000000000000000000815260040161042c90610a20565b60405180910390fd5b7f93d24966e3b2bc978618b98b850975e253de9c731c26ccfced101effd715dee38a8a8a8a8a8a8a8a8a8a6040516104769a99989796959493929190610a8d565b60405180910390a150505050505050505050565b600080fd5b600080fd5b60008115159050919050565b6104a981610494565b81146104b457600080fd5b50565b6000813590506104c6816104a0565b92915050565b6000602082840312156104e2576104e161048a565b5b60006104f0848285016104b7565b91505092915050565b61050281610494565b82525050565b600060208201905061051d60008301846104f9565b92915050565b600073ffffffffffffffffffffffffffffffffffffffff82169050919050565b600061054e82610523565b9050919050565b61055e81610543565b811461056957600080fd5b50565b60008135905061057b81610555565b92915050565b6000819050919050565b61059481610581565b811461059f57600080fd5b50565b6000813590506105b18161058b565b92915050565b600080604083850312156105ce576105cd61048a565b5b60006105dc8582860161056c565b92505060206105ed858286016105a2565b9150509250929050565b61060081610581565b82525050565b600060208201905061061b60008301846105f7565b92915050565b6000602082840312156106375761063661048a565b5b6000610645848285016105a2565b91505092915050565b600080fd5b600080fd5b600080fd5b60008083601f8401126106735761067261064e565b5b8235905067ffffffffffffffff8111156106905761068f610653565b5b6020830191508360018202830111156106ac576106ab610658565b5b9250929050565b60008060008060008060008060008060a08b8d0312156106d6576106d561048a565b5b60008b013567ffffffffffffffff8111156106f4576106f361048f565b5b6107008d828e0161065d565b9a509a505060208b013567ffffffffffffffff8111156107235761072261048f565b5b61072f8d828e0161065d565b985098505060408b013567ffffffffffffffff8111156107525761075161048f565b5b61075e8d828e0161065d565b965096505060608b013567ffffffffffffffff8111156107815761078061048f565b5b61078d8d828e0161065d565b945094505060808b013567ffffffffffffffff8111156107b0576107af61048f565b5b6107bc8d828e0161065d565b92509250509295989b9194979a5092959850565b600082825260208201905092915050565b7f77726f6e67206f776e65722c2063616e74207570646174650000000000000000600082015250565b60006108176018836107d0565b9150610822826107e1565b602082019050919050565b600060208201905081810360008301526108468161080a565b9050919050565b7f77726f6e67206f776e65722c2063616e74207472616e73666572000000000000600082015250565b6000610883601a836107d0565b915061088e8261084d565b602082019050919050565b600060208201905081810360008301526108b281610876565b9050919050565b7f4e487b7100000000000000000000000000000000000000000000000000000000600052601160045260246000fd5b60006108f382610581565b91506108fe83610581565b9250817fffffffffffffffffffffffffffffffffffffffffffffffffffffffffffffffff0483118215151615610937576109366108b9565b5b828202905092915050565b7f4e6f7420656e6f75676820657468657200000000000000000000000000000000600082015250565b60006109786010836107d0565b915061098382610942565b602082019050919050565b600060208201905081810360008301526109a78161096b565b9050919050565b7f41504920696e6163746976652c20636865636b20646563656e746170692e636f60008201527f6d20666f72207374617475732e00000000000000000000000000000000000000602082015250565b6000610a0a602d836107d0565b9150610a15826109ae565b604082019050919050565b60006020820190508181036000830152610a39816109fd565b9050919050565b82818337600083830152505050565b6000601f19601f8301169050919050565b6000610a6c83856107d0565b9350610a79838584610a40565b610a8283610a4f565b840190509392505050565b600060a0820190508181036000830152610aa8818c8e610a60565b90508181036020830152610abd818a8c610a60565b90508181036040830152610ad281888a610a60565b90508181036060830152610ae7818688610a60565b90508181036080830152610afc818486610a60565b90509b9a505050505050505050505056fea2646970667358221220ad4c27cacbe71e3159cc15e004f698d0c915c6e64a6a59bd377cacd8c361734064736f6c634300080a0033",
  "immutableReferences": {},
  "source": "// SPDX-License-Identifier: MIT\r\n// DecentAPI - 2021\r\npragma solidity >= 0.5.16 < 0.9.0;\r\n\r\ncontract Stock_Request {\r\n\r\n    uint public price;\r\n    bool public isActive;    \r\n    address admin;\r\n\r\n\r\n    constructor(){\r\n        admin = msg.sender;\r\n\r\n    }\r\n\r\n    event stockParams(\r\n        string timeType,\r\n        string symbol,\r\n        string outputSize,\r\n        string dataType,\r\n        string interval\r\n\r\n\r\n        \r\n    );\r\n\r\n    function sendStockParams(string calldata _timeType, string calldata _symbol,string calldata _outputSize, string calldata _dataType, string calldata _interval) external payable {\r\n        if (msg.value < price*1000000000000000 ) {\r\n            revert('Not enough ether');\r\n        }\r\n        \r\n        if (!isActive){\r\n            revert('API inactive, check decentapi.com for status.');\r\n        }\r\n\r\n\r\n        emit stockParams(_timeType, _symbol,_outputSize,_dataType, _interval);\r\n\r\n\r\n\r\n    }  \r\n\r\n\r\n    function setPrices(uint _price) external {\r\n        if (msg.sender != admin) {\r\n            revert('wrong owner, cant update');\r\n        }        \r\n        \r\n        price = _price;    \r\n\r\n\r\n\r\n    }\r\n\r\n    function setApiState(bool _isActive) external {\r\n        if (msg.sender != admin) {\r\n            revert('wrong owner, cant update');\r\n        }\r\n\r\n        isActive = _isActive;\r\n\r\n\r\n    }\r\n\r\n\r\n\r\n    function transferFunds(address payable recipient, uint256 amount) external {\r\n        if (msg.sender != admin) {\r\n            revert('wrong owner, cant transfer');\r\n        }\r\n        recipient.transfer(amount * 1E18);\r\n    }\r\n\r\n    \r\n\r\n\r\n\r\n\r\n\r\n\r\n\r\n\r\n\r\n}",
  "sourcePath": "C:\\Users\\Salah\\projects\\web3_stock\\contracts\\Stock_Request.sol",
  "compiler": {
    "name": "solc",
    "version": "0.8.10+commit.fc410830.Emscripten.clang"
  },
  "schemaVersion": "3.4.3",
  "updatedAt": "2022-01-01T23:44:21.379Z",
  "networkType": "ethereum",
  "devdoc": {
    "kind": "dev",
    "methods": {},
    "version": 1
  },
  "userdoc": {
    "kind": "user",
    "methods": {},
    "version": 1
  }
}