{
  "contractName": "Stock_Response",
  "abi": [
    {
      "inputs": [],
      "stateMutability": "nonpayable",
      "type": "constructor"
    },
    {
      "anonymous": false,
      "inputs": [
        {
          "indexed": false,
          "internalType": "string",
          "name": "sender_address",
          "type": "string"
        },
        {
          "indexed": false,
          "internalType": "string",
          "name": "symbol",
          "type": "string"
        },
        {
          "indexed": false,
          "internalType": "string",
          "name": "dataCID",
          "type": "string"
        }
      ],
      "name": "stockData",
      "type": "event"
    },
    {
      "inputs": [
        {
          "internalType": "address",
          "name": "_allowedAddress",
          "type": "address"
        }
      ],
      "name": "addAllowedAddress",
      "outputs": [],
      "stateMutability": "nonpayable",
      "type": "function"
    },
    {
      "inputs": [
        {
          "internalType": "address",
          "name": "_uA",
          "type": "address"
        }
      ],
      "name": "isAddressAllowed",
      "outputs": [
        {
          "internalType": "bool",
          "name": "",
          "type": "bool"
        }
      ],
      "stateMutability": "view",
      "type": "function"
    },
    {
      "inputs": [
        {
          "internalType": "string",
          "name": "_sender_address",
          "type": "string"
        },
        {
          "internalType": "string",
          "name": "_symbol",
          "type": "string"
        },
        {
          "internalType": "string",
          "name": "_dataCID",
          "type": "string"
        }
      ],
      "name": "emitStockData",
      "outputs": [],
      "stateMutability": "nonpayable",
      "type": "function"
    }
  ],
  "bytecode": "0x608060405234801561001057600080fd5b50336000806101000a81548173ffffffffffffffffffffffffffffffffffffffff021916908373ffffffffffffffffffffffffffffffffffffffff160217905550610688806100606000396000f3fe608060405234801561001057600080fd5b50600436106100415760003560e01c806347aafd7f1461004657806381788e2b146100625780638fa2a9031461007e575b600080fd5b610060600480360381019061005b9190610355565b6100ae565b005b61007c60048036038101906100779190610467565b61013f565b005b61009860048036038101906100939190610467565b61028a565b6040516100a591906104af565b60405180910390f35b6100b73361028a565b6100f6576040517f08c379a00000000000000000000000000000000000000000000000000000000081526004016100ed90610527565b60405180910390fd5b7f17cb4c8192eb2dca7329795afc04892ff2ac9e0925abb6df7cf76c72efcbd80086868686868660405161012f96959493929190610594565b60405180910390a1505050505050565b60008054906101000a900473ffffffffffffffffffffffffffffffffffffffff1673ffffffffffffffffffffffffffffffffffffffff163373ffffffffffffffffffffffffffffffffffffffff16146101cd576040517f08c379a00000000000000000000000000000000000000000000000000000000081526004016101c490610632565b60405180910390fd5b6101d68161028a565b61028757600280549050600160008373ffffffffffffffffffffffffffffffffffffffff1673ffffffffffffffffffffffffffffffffffffffff168152602001908152602001600020819055506002819080600181540180825580915050600190039060005260206000200160009091909190916101000a81548173ffffffffffffffffffffffffffffffffffffffff021916908373ffffffffffffffffffffffffffffffffffffffff1602179055505b50565b600080600160008473ffffffffffffffffffffffffffffffffffffffff1673ffffffffffffffffffffffffffffffffffffffff1681526020019081526020016000205411156102dc57600190506102e1565b600090505b919050565b600080fd5b600080fd5b600080fd5b600080fd5b600080fd5b60008083601f840112610315576103146102f0565b5b8235905067ffffffffffffffff811115610332576103316102f5565b5b60208301915083600182028301111561034e5761034d6102fa565b5b9250929050565b60008060008060008060608789031215610372576103716102e6565b5b600087013567ffffffffffffffff8111156103905761038f6102eb565b5b61039c89828a016102ff565b9650965050602087013567ffffffffffffffff8111156103bf576103be6102eb565b5b6103cb89828a016102ff565b9450945050604087013567ffffffffffffffff8111156103ee576103ed6102eb565b5b6103fa89828a016102ff565b92509250509295509295509295565b600073ffffffffffffffffffffffffffffffffffffffff82169050919050565b600061043482610409565b9050919050565b61044481610429565b811461044f57600080fd5b50565b6000813590506104618161043b565b92915050565b60006020828403121561047d5761047c6102e6565b5b600061048b84828501610452565b91505092915050565b60008115159050919050565b6104a981610494565b82525050565b60006020820190506104c460008301846104a0565b92915050565b600082825260208201905092915050565b7f77726f6e6720616464726573732c2063616e7420656d69740000000000000000600082015250565b60006105116018836104ca565b915061051c826104db565b602082019050919050565b6000602082019050818103600083015261054081610504565b9050919050565b82818337600083830152505050565b6000601f19601f8301169050919050565b600061057383856104ca565b9350610580838584610547565b61058983610556565b840190509392505050565b600060608201905081810360008301526105af81888a610567565b905081810360208301526105c4818688610567565b905081810360408301526105d9818486610567565b9050979650505050505050565b7f77726f6e67206f776e65722c2063616e74206164642061646472657373000000600082015250565b600061061c601d836104ca565b9150610627826105e6565b602082019050919050565b6000602082019050818103600083015261064b8161060f565b905091905056fea2646970667358221220cca82b03f873fdd9d2a94a04e8fb766e7504145e86410887fc549607f3b64b4464736f6c634300080a0033",
  "immutableReferences": {},
  "source": "// SPDX-License-Identifier: MIT\r\n// DecentAPI - 2021\r\npragma solidity >= 0.5.16 < 0.9.0;\r\n  \r\ncontract Stock_Response {\r\n\r\n    address admin;\r\n    mapping (address => uint) index;\r\n    address[] allowedAddresses;\r\n    \r\n\r\n    constructor()  {\r\n        admin = msg.sender;\r\n    }\r\n\r\n    function addAllowedAddress(address _allowedAddress) external {\r\n        if (msg.sender != admin) {\r\n            revert('wrong owner, cant add address');\r\n        }\r\n        \r\n        if (!isAddressAllowed(_allowedAddress)) {\r\n            index[_allowedAddress] = allowedAddresses.length;\r\n            allowedAddresses.push(_allowedAddress);\r\n        }\r\n\r\n    }\r\n    \r\n    function isAddressAllowed(address _uA) public view returns (bool) {\r\n        \r\n        if (index[_uA] > 0) {\r\n            return true;\r\n        }\r\n        return false;\r\n    }\r\n\r\n    event stockData(\r\n        string sender_address,\r\n        string symbol,\r\n        string dataCID\r\n    );\r\n\r\n    function emitStockData(\r\n        string calldata _sender_address,\r\n        string calldata _symbol,\r\n        string calldata _dataCID\r\n\r\n        ) external {\r\n\r\n        if (!isAddressAllowed(msg.sender)) {\r\n        revert('wrong address, cant emit');\r\n        }\r\n\r\n        emit stockData(\r\n            _sender_address, \r\n            _symbol,\r\n            _dataCID\r\n  \r\n            );\r\n\r\n\r\n\r\n    }\r\n\r\n    \r\n\r\n\r\n}",
  "sourcePath": "C:\\Users\\Salah\\projects\\web3_stock\\contracts\\Stock_Response.sol",
  "compiler": {
    "name": "solc",
    "version": "0.8.10+commit.fc410830.Emscripten.clang"
  },
  "schemaVersion": "3.4.3",
  "updatedAt": "2022-01-01T23:43:55.530Z",
  "devdoc": {
    "kind": "dev",
    "methods": {},
    "version": 1
  },
  "userdoc": {
    "kind": "user",
    "methods": {},
    "version": 1
  }
}